{
  "_format": "hh-sol-artifact-1",
  "contractName": "EtheCall",
  "sourceName": "contracts/Ethe-Call.sol",
  "abi": [
    {
      "inputs": [],
      "name": "NOT_A_HOST",
      "type": "error"
    },
    {
      "inputs": [
        {
          "internalType": "string",
          "name": "_id",
          "type": "string"
        },
        {
          "internalType": "address",
          "name": "_new_callee",
          "type": "address"
        }
      ],
      "name": "admitUser",
      "outputs": [],
      "stateMutability": "nonpayable",
      "type": "function"
    },
    {
      "inputs": [
        {
          "internalType": "string",
          "name": "_id",
          "type": "string"
        },
        {
          "internalType": "address",
          "name": "user",
          "type": "address"
        }
      ],
      "name": "isAdmitted",
      "outputs": [
        {
          "internalType": "bool",
          "name": "",
          "type": "bool"
        }
      ],
      "stateMutability": "view",
      "type": "function"
    },
    {
      "inputs": [
        {
          "internalType": "string",
          "name": "_id",
          "type": "string"
        }
      ],
      "name": "newCall",
      "outputs": [],
      "stateMutability": "nonpayable",
      "type": "function"
    }
  ],
  "bytecode": "0x608060405234801561001057600080fd5b5061089f806100206000396000f3fe608060405234801561001057600080fd5b50600436106100415760003560e01c806318ca3b6c146100465780637fd537cc1461006257806385e1f5c51461007e575b600080fd5b610060600480360381019061005b91906105f8565b6100ae565b005b61007c6004803603810190610077919061069f565b610195565b005b6100986004803603810190610093919061069f565b6102d3565b6040516100a59190610716565b60405180910390f35b6100b66103c0565b33816000019073ffffffffffffffffffffffffffffffffffffffff16908173ffffffffffffffffffffffffffffffffffffffff1681525050806000836040516100ff91906107a2565b908152602001604051809103902060008201518160000160006101000a81548173ffffffffffffffffffffffffffffffffffffffff021916908373ffffffffffffffffffffffffffffffffffffffff16021790555060208201518160010190805190602001906101709291906103f7565b50604082015181600201908051906020019061018d9291906103f7565b509050505050565b816000816040516101a691906107a2565b908152602001604051809103902060000160009054906101000a900473ffffffffffffffffffffffffffffffffffffffff1673ffffffffffffffffffffffffffffffffffffffff163373ffffffffffffffffffffffffffffffffffffffff161461023c576040517f3a51e3d500000000000000000000000000000000000000000000000000000000815260040160405180910390fd5b61024683836102d3565b156102ce5760008360405161025b91906107a2565b9081526020016040518091039020600101829080600181540180825580915050600190039060005260206000200160009091909190916101000a81548173ffffffffffffffffffffffffffffffffffffffff021916908373ffffffffffffffffffffffffffffffffffffffff1602179055505b505050565b600080600090505b6000846040516102eb91906107a2565b9081526020016040518091039020600101805490508110156103b45760008460405161031791906107a2565b9081526020016040518091039020600101818154811061033a576103396107b9565b5b9060005260206000200160009054906101000a900473ffffffffffffffffffffffffffffffffffffffff1673ffffffffffffffffffffffffffffffffffffffff168373ffffffffffffffffffffffffffffffffffffffff16036103a15760019150506103ba565b80806103ac90610821565b9150506102db565b50600090505b92915050565b6040518060600160405280600073ffffffffffffffffffffffffffffffffffffffff16815260200160608152602001606081525090565b828054828255906000526020600020908101928215610470579160200282015b8281111561046f5782518260006101000a81548173ffffffffffffffffffffffffffffffffffffffff021916908373ffffffffffffffffffffffffffffffffffffffff16021790555091602001919060010190610417565b5b50905061047d9190610481565b5090565b5b8082111561049a576000816000905550600101610482565b5090565b6000604051905090565b600080fd5b600080fd5b600080fd5b600080fd5b6000601f19601f8301169050919050565b7f4e487b7100000000000000000000000000000000000000000000000000000000600052604160045260246000fd5b610505826104bc565b810181811067ffffffffffffffff82111715610524576105236104cd565b5b80604052505050565b600061053761049e565b905061054382826104fc565b919050565b600067ffffffffffffffff821115610563576105626104cd565b5b61056c826104bc565b9050602081019050919050565b82818337600083830152505050565b600061059b61059684610548565b61052d565b9050828152602081018484840111156105b7576105b66104b7565b5b6105c2848285610579565b509392505050565b600082601f8301126105df576105de6104b2565b5b81356105ef848260208601610588565b91505092915050565b60006020828403121561060e5761060d6104a8565b5b600082013567ffffffffffffffff81111561062c5761062b6104ad565b5b610638848285016105ca565b91505092915050565b600073ffffffffffffffffffffffffffffffffffffffff82169050919050565b600061066c82610641565b9050919050565b61067c81610661565b811461068757600080fd5b50565b60008135905061069981610673565b92915050565b600080604083850312156106b6576106b56104a8565b5b600083013567ffffffffffffffff8111156106d4576106d36104ad565b5b6106e0858286016105ca565b92505060206106f18582860161068a565b9150509250929050565b60008115159050919050565b610710816106fb565b82525050565b600060208201905061072b6000830184610707565b92915050565b600081519050919050565b600081905092915050565b60005b8381101561076557808201518184015260208101905061074a565b60008484015250505050565b600061077c82610731565b610786818561073c565b9350610796818560208601610747565b80840191505092915050565b60006107ae8284610771565b915081905092915050565b7f4e487b7100000000000000000000000000000000000000000000000000000000600052603260045260246000fd5b7f4e487b7100000000000000000000000000000000000000000000000000000000600052601160045260246000fd5b6000819050919050565b600061082c82610817565b91507fffffffffffffffffffffffffffffffffffffffffffffffffffffffffffffffff820361085e5761085d6107e8565b5b60018201905091905056fea26469706673582212204047f22f1a382febbbcf4dc4bb2c8aade6bf77e484b154e42b7b9dd5b720fd7a64736f6c63430008110033",
  "linkReferences": {},
  "deployedLinkReferences": {}
}