{
  "_format": "hh-sol-artifact-1",
  "contractName": "EtheCall",
  "sourceName": "contracts/Ethe-Call.sol",
  "abi": [
    {
      "inputs": [],
      "name": "NOT_A_HOST",
      "type": "error"
    },
    {
      "anonymous": false,
      "inputs": [
        {
          "indexed": false,
          "internalType": "address",
          "name": "user",
          "type": "address"
        },
        {
          "indexed": false,
          "internalType": "string",
          "name": "nickname",
          "type": "string"
        }
      ],
      "name": "setNicknameEvent",
      "type": "event"
    },
    {
      "inputs": [
        {
          "internalType": "string",
          "name": "call_id",
          "type": "string"
        },
        {
          "internalType": "address",
          "name": "user",
          "type": "address"
        }
      ],
      "name": "addAdmin",
      "outputs": [],
      "stateMutability": "nonpayable",
      "type": "function"
    },
    {
      "inputs": [
        {
          "internalType": "string",
          "name": "call_id",
          "type": "string"
        },
        {
          "internalType": "address",
          "name": "new_callee",
          "type": "address"
        }
      ],
      "name": "admitUser",
      "outputs": [],
      "stateMutability": "nonpayable",
      "type": "function"
    },
    {
      "inputs": [
        {
          "internalType": "string",
          "name": "call_id",
          "type": "string"
        },
        {
          "internalType": "address",
          "name": "new_host",
          "type": "address"
        }
      ],
      "name": "changeHost",
      "outputs": [],
      "stateMutability": "nonpayable",
      "type": "function"
    },
    {
      "inputs": [
        {
          "internalType": "address",
          "name": "user",
          "type": "address"
        }
      ],
      "name": "getFingerprint",
      "outputs": [
        {
          "internalType": "string",
          "name": "",
          "type": "string"
        }
      ],
      "stateMutability": "view",
      "type": "function"
    },
    {
      "inputs": [
        {
          "internalType": "string",
          "name": "call_id",
          "type": "string"
        }
      ],
      "name": "getHost",
      "outputs": [
        {
          "internalType": "address",
          "name": "",
          "type": "address"
        }
      ],
      "stateMutability": "view",
      "type": "function"
    },
    {
      "inputs": [
        {
          "internalType": "address",
          "name": "user",
          "type": "address"
        }
      ],
      "name": "getNickname",
      "outputs": [
        {
          "internalType": "string",
          "name": "",
          "type": "string"
        }
      ],
      "stateMutability": "view",
      "type": "function"
    },
    {
      "inputs": [
        {
          "internalType": "string",
          "name": "call_id",
          "type": "string"
        },
        {
          "internalType": "address",
          "name": "user",
          "type": "address"
        }
      ],
      "name": "isAdmin",
      "outputs": [
        {
          "internalType": "bool",
          "name": "",
          "type": "bool"
        }
      ],
      "stateMutability": "view",
      "type": "function"
    },
    {
      "inputs": [
        {
          "internalType": "string",
          "name": "call_id",
          "type": "string"
        },
        {
          "internalType": "address",
          "name": "user",
          "type": "address"
        }
      ],
      "name": "isAdmitted",
      "outputs": [
        {
          "internalType": "bool",
          "name": "",
          "type": "bool"
        }
      ],
      "stateMutability": "view",
      "type": "function"
    },
    {
      "inputs": [
        {
          "internalType": "string",
          "name": "call_id",
          "type": "string"
        }
      ],
      "name": "newCall",
      "outputs": [],
      "stateMutability": "nonpayable",
      "type": "function"
    },
    {
      "inputs": [
        {
          "internalType": "string",
          "name": "call_id",
          "type": "string"
        },
        {
          "internalType": "address[]",
          "name": "users",
          "type": "address[]"
        },
        {
          "internalType": "address[]",
          "name": "admins",
          "type": "address[]"
        }
      ],
      "name": "newCall",
      "outputs": [],
      "stateMutability": "nonpayable",
      "type": "function"
    },
    {
      "inputs": [
        {
          "internalType": "string",
          "name": "nickname",
          "type": "string"
        }
      ],
      "name": "nicknameToAddress",
      "outputs": [
        {
          "internalType": "address",
          "name": "",
          "type": "address"
        }
      ],
      "stateMutability": "view",
      "type": "function"
    },
    {
      "inputs": [
        {
          "internalType": "string",
          "name": "fingerprint",
          "type": "string"
        }
      ],
      "name": "setFingerprint",
      "outputs": [],
      "stateMutability": "nonpayable",
      "type": "function"
    },
    {
      "inputs": [
        {
          "internalType": "string",
          "name": "nickname",
          "type": "string"
        }
      ],
      "name": "setNickname",
      "outputs": [],
      "stateMutability": "nonpayable",
      "type": "function"
    }
  ],
  "bytecode": "0x608060405234801561001057600080fd5b50611ff0806100206000396000f3fe608060405234801561001057600080fd5b50600436106100cf5760003560e01c80637fd537cc1161008c5780639e84e3a1116100665780639e84e3a11461020c578063adaccd741461023c578063f5cd7d461461026c578063fee9255c1461029c576100cf565b80637fd537cc146101a457806385e1f5c5146101c05780639a290c0c146101f0576100cf565b80630831b05f146100d457806318ca3b6c146100f05780631c5d9faa1461010c5780633b4860951461012857806354d7a9f6146101585780636c6c1e9014610174575b600080fd5b6100ee60048036038101906100e99190611723565b6102b8565b005b61010a6004803603810190610105919061177f565b61056a565b005b6101266004803603810190610121919061177f565b6107c8565b005b610142600480360381019061013d9190611723565b610a86565b60405161014f91906117e3565b60405180910390f35b610172600480360381019061016d9190611723565b610c3d565b005b61018e600480360381019061018991906117fe565b610d49565b60405161019b91906118aa565b60405180910390f35b6101be60048036038101906101b99190611723565b610e1a565b005b6101da60048036038101906101d59190611723565b610fe9565b6040516101e791906117e3565b60405180910390f35b61020a60048036038101906102059190611994565b61114c565b005b6102266004803603810190610221919061177f565b611382565b6040516102339190611a4a565b60405180910390f35b610256600480360381019061025191906117fe565b6113ca565b60405161026391906118aa565b60405180910390f35b6102866004803603810190610281919061177f565b61149b565b6040516102939190611a4a565b60405180910390f35b6102b660048036038101906102b1919061177f565b6114e5565b005b816000816040516102c99190611aa1565b908152602001604051809103902060000160009054906101000a900473ffffffffffffffffffffffffffffffffffffffff1673ffffffffffffffffffffffffffffffffffffffff163373ffffffffffffffffffffffffffffffffffffffff161461035f576040517f3a51e3d500000000000000000000000000000000000000000000000000000000815260040160405180910390fd5b60005b6001846040516103729190611aa1565b9081526020016040518091039020805490508110156104895760018460405161039b9190611aa1565b908152602001604051809103902081815481106103bb576103ba611ab8565b5b9060005260206000200160000160009054906101000a900473ffffffffffffffffffffffffffffffffffffffff1673ffffffffffffffffffffffffffffffffffffffff168373ffffffffffffffffffffffffffffffffffffffff1603610476576001808560405161042c9190611aa1565b9081526020016040518091039020828154811061044c5761044b611ab8565b5b9060005260206000200160000160146101000a81548160ff02191690831515021790555050610565565b808061048190611b20565b915050610362565b5060018360405161049a9190611aa1565b908152602001604051809103902060405180604001604052808473ffffffffffffffffffffffffffffffffffffffff168152602001600115158152509080600181540180825580915050600190039060005260206000200160009091909190915060008201518160000160006101000a81548173ffffffffffffffffffffffffffffffffffffffff021916908373ffffffffffffffffffffffffffffffffffffffff16021790555060208201518160000160146101000a81548160ff02191690831515021790555050505b505050565b600073ffffffffffffffffffffffffffffffffffffffff166000826040516105929190611aa1565b908152602001604051809103902060000160009054906101000a900473ffffffffffffffffffffffffffffffffffffffff1673ffffffffffffffffffffffffffffffffffffffff161461061a576040517f08c379a000000000000000000000000000000000000000000000000000000000815260040161061190611bb4565b60405180910390fd5b610622611535565b33816000019073ffffffffffffffffffffffffffffffffffffffff16908173ffffffffffffffffffffffffffffffffffffffff16815250508060008360405161066b9190611aa1565b908152602001604051809103902060008201518160000160006101000a81548173ffffffffffffffffffffffffffffffffffffffff021916908373ffffffffffffffffffffffffffffffffffffffff16021790555060208201518160000160146101000a81548163ffffffff021916908363ffffffff1602179055509050506001826040516106fa9190611aa1565b908152602001604051809103902060405180604001604052803373ffffffffffffffffffffffffffffffffffffffff168152602001600115158152509080600181540180825580915050600190039060005260206000200160009091909190915060008201518160000160006101000a81548173ffffffffffffffffffffffffffffffffffffffff021916908373ffffffffffffffffffffffffffffffffffffffff16021790555060208201518160000160146101000a81548160ff02191690831515021790555050505050565b600073ffffffffffffffffffffffffffffffffffffffff166004826040516107f09190611aa1565b908152602001604051809103902060009054906101000a900473ffffffffffffffffffffffffffffffffffffffff1673ffffffffffffffffffffffffffffffffffffffff1614610875576040517f08c379a000000000000000000000000000000000000000000000000000000000815260040161086c90611c20565b60405180910390fd5b6000600360003373ffffffffffffffffffffffffffffffffffffffff1673ffffffffffffffffffffffffffffffffffffffff16815260200190815260200160002080546108c190611c6f565b80601f01602080910402602001604051908101604052809291908181526020018280546108ed90611c6f565b801561093a5780601f1061090f5761010080835404028352916020019161093a565b820191906000526020600020905b81548152906001019060200180831161091d57829003601f168201915b5050505050905060006004826040516109539190611aa1565b908152602001604051809103902060006101000a81548173ffffffffffffffffffffffffffffffffffffffff021916908373ffffffffffffffffffffffffffffffffffffffff160217905550336004836040516109b09190611aa1565b908152602001604051809103902060006101000a81548173ffffffffffffffffffffffffffffffffffffffff021916908373ffffffffffffffffffffffffffffffffffffffff16021790555081600360003373ffffffffffffffffffffffffffffffffffffffff1673ffffffffffffffffffffffffffffffffffffffff1681526020019081526020016000209081610a489190611e4c565b507f77d2e67b5fd39ecd027de738b10a45d3c654ae114d4391563eaaf713380f13413383604051610a7a929190611f1e565b60405180910390a15050565b60008083604051610a979190611aa1565b908152602001604051809103902060000160009054906101000a900473ffffffffffffffffffffffffffffffffffffffff1673ffffffffffffffffffffffffffffffffffffffff168273ffffffffffffffffffffffffffffffffffffffff1603610b045760019050610c37565b60005b600184604051610b179190611aa1565b908152602001604051809103902080549050811015610c3157600184604051610b409190611aa1565b90815260200160405180910390208181548110610b6057610b5f611ab8565b5b9060005260206000200160000160009054906101000a900473ffffffffffffffffffffffffffffffffffffffff1673ffffffffffffffffffffffffffffffffffffffff168373ffffffffffffffffffffffffffffffffffffffff16148015610c0f5750600184604051610bd39190611aa1565b90815260200160405180910390208181548110610bf357610bf2611ab8565b5b9060005260206000200160000160149054906101000a900460ff165b15610c1e576001915050610c37565b8080610c2990611b20565b915050610b07565b50600090505b92915050565b81600081604051610c4e9190611aa1565b908152602001604051809103902060000160009054906101000a900473ffffffffffffffffffffffffffffffffffffffff1673ffffffffffffffffffffffffffffffffffffffff163373ffffffffffffffffffffffffffffffffffffffff1614610ce4576040517f3a51e3d500000000000000000000000000000000000000000000000000000000815260040160405180910390fd5b81600084604051610cf59190611aa1565b908152602001604051809103902060000160006101000a81548173ffffffffffffffffffffffffffffffffffffffff021916908373ffffffffffffffffffffffffffffffffffffffff160217905550505050565b6060600260008373ffffffffffffffffffffffffffffffffffffffff1673ffffffffffffffffffffffffffffffffffffffff1681526020019081526020016000208054610d9590611c6f565b80601f0160208091040260200160405190810160405280929190818152602001828054610dc190611c6f565b8015610e0e5780601f10610de357610100808354040283529160200191610e0e565b820191906000526020600020905b815481529060010190602001808311610df157829003601f168201915b50505050509050919050565b81600081604051610e2b9190611aa1565b908152602001604051809103902060000160009054906101000a900473ffffffffffffffffffffffffffffffffffffffff1673ffffffffffffffffffffffffffffffffffffffff163373ffffffffffffffffffffffffffffffffffffffff1614610ec1576040517f3a51e3d500000000000000000000000000000000000000000000000000000000815260040160405180910390fd5b610ecb8383610fe9565b610f0a576040517f08c379a0000000000000000000000000000000000000000000000000000000008152600401610f0190611f9a565b60405180910390fd5b600183604051610f1a9190611aa1565b908152602001604051809103902060405180604001604052808473ffffffffffffffffffffffffffffffffffffffff168152602001600015158152509080600181540180825580915050600190039060005260206000200160009091909190915060008201518160000160006101000a81548173ffffffffffffffffffffffffffffffffffffffff021916908373ffffffffffffffffffffffffffffffffffffffff16021790555060208201518160000160146101000a81548160ff0219169083151502179055505050505050565b60008083604051610ffa9190611aa1565b908152602001604051809103902060000160009054906101000a900473ffffffffffffffffffffffffffffffffffffffff1673ffffffffffffffffffffffffffffffffffffffff168273ffffffffffffffffffffffffffffffffffffffff16036110675760019050611146565b60005b60018460405161107a9190611aa1565b908152602001604051809103902080549050811015611140576001846040516110a39190611aa1565b908152602001604051809103902081815481106110c3576110c2611ab8565b5b9060005260206000200160000160009054906101000a900473ffffffffffffffffffffffffffffffffffffffff1673ffffffffffffffffffffffffffffffffffffffff168373ffffffffffffffffffffffffffffffffffffffff160361112d576001915050611146565b808061113890611b20565b91505061106a565b50600090505b92915050565b6111558361056a565b60005b8251811015611268576001846040516111719190611aa1565b9081526020016040518091039020604051806040016040528085848151811061119d5761119c611ab8565b5b602002602001015173ffffffffffffffffffffffffffffffffffffffff168152602001600015158152509080600181540180825580915050600190039060005260206000200160009091909190915060008201518160000160006101000a81548173ffffffffffffffffffffffffffffffffffffffff021916908373ffffffffffffffffffffffffffffffffffffffff16021790555060208201518160000160146101000a81548160ff0219169083151502179055505050808061126090611b20565b915050611158565b5060005b815181101561137c576001846040516112859190611aa1565b908152602001604051809103902060405180604001604052808484815181106112b1576112b0611ab8565b5b602002602001015173ffffffffffffffffffffffffffffffffffffffff168152602001600115158152509080600181540180825580915050600190039060005260206000200160009091909190915060008201518160000160006101000a81548173ffffffffffffffffffffffffffffffffffffffff021916908373ffffffffffffffffffffffffffffffffffffffff16021790555060208201518160000160146101000a81548160ff0219169083151502179055505050808061137490611b20565b91505061126c565b50505050565b60006004826040516113949190611aa1565b908152602001604051809103902060009054906101000a900473ffffffffffffffffffffffffffffffffffffffff169050919050565b6060600360008373ffffffffffffffffffffffffffffffffffffffff1673ffffffffffffffffffffffffffffffffffffffff168152602001908152602001600020805461141690611c6f565b80601f016020809104026020016040519081016040528092919081815260200182805461144290611c6f565b801561148f5780601f106114645761010080835404028352916020019161148f565b820191906000526020600020905b81548152906001019060200180831161147257829003601f168201915b50505050509050919050565b600080826040516114ac9190611aa1565b908152602001604051809103902060000160009054906101000a900473ffffffffffffffffffffffffffffffffffffffff169050919050565b80600260003373ffffffffffffffffffffffffffffffffffffffff1673ffffffffffffffffffffffffffffffffffffffff16815260200190815260200160002090816115319190611e4c565b5050565b6040518060400160405280600073ffffffffffffffffffffffffffffffffffffffff168152602001600063ffffffff1681525090565b6000604051905090565b600080fd5b600080fd5b600080fd5b600080fd5b6000601f19601f8301169050919050565b7f4e487b7100000000000000000000000000000000000000000000000000000000600052604160045260246000fd5b6115d282611589565b810181811067ffffffffffffffff821117156115f1576115f061159a565b5b80604052505050565b600061160461156b565b905061161082826115c9565b919050565b600067ffffffffffffffff8211156116305761162f61159a565b5b61163982611589565b9050602081019050919050565b82818337600083830152505050565b600061166861166384611615565b6115fa565b90508281526020810184848401111561168457611683611584565b5b61168f848285611646565b509392505050565b600082601f8301126116ac576116ab61157f565b5b81356116bc848260208601611655565b91505092915050565b600073ffffffffffffffffffffffffffffffffffffffff82169050919050565b60006116f0826116c5565b9050919050565b611700816116e5565b811461170b57600080fd5b50565b60008135905061171d816116f7565b92915050565b6000806040838503121561173a57611739611575565b5b600083013567ffffffffffffffff8111156117585761175761157a565b5b61176485828601611697565b92505060206117758582860161170e565b9150509250929050565b60006020828403121561179557611794611575565b5b600082013567ffffffffffffffff8111156117b3576117b261157a565b5b6117bf84828501611697565b91505092915050565b60008115159050919050565b6117dd816117c8565b82525050565b60006020820190506117f860008301846117d4565b92915050565b60006020828403121561181457611813611575565b5b60006118228482850161170e565b91505092915050565b600081519050919050565b600082825260208201905092915050565b60005b8381101561186557808201518184015260208101905061184a565b60008484015250505050565b600061187c8261182b565b6118868185611836565b9350611896818560208601611847565b61189f81611589565b840191505092915050565b600060208201905081810360008301526118c48184611871565b905092915050565b600067ffffffffffffffff8211156118e7576118e661159a565b5b602082029050602081019050919050565b600080fd5b600061191061190b846118cc565b6115fa565b90508083825260208201905060208402830185811115611933576119326118f8565b5b835b8181101561195c5780611948888261170e565b845260208401935050602081019050611935565b5050509392505050565b600082601f83011261197b5761197a61157f565b5b813561198b8482602086016118fd565b91505092915050565b6000806000606084860312156119ad576119ac611575565b5b600084013567ffffffffffffffff8111156119cb576119ca61157a565b5b6119d786828701611697565b935050602084013567ffffffffffffffff8111156119f8576119f761157a565b5b611a0486828701611966565b925050604084013567ffffffffffffffff811115611a2557611a2461157a565b5b611a3186828701611966565b9150509250925092565b611a44816116e5565b82525050565b6000602082019050611a5f6000830184611a3b565b92915050565b600081905092915050565b6000611a7b8261182b565b611a858185611a65565b9350611a95818560208601611847565b80840191505092915050565b6000611aad8284611a70565b915081905092915050565b7f4e487b7100000000000000000000000000000000000000000000000000000000600052603260045260246000fd5b7f4e487b7100000000000000000000000000000000000000000000000000000000600052601160045260246000fd5b6000819050919050565b6000611b2b82611b16565b91507fffffffffffffffffffffffffffffffffffffffffffffffffffffffffffffffff8203611b5d57611b5c611ae7565b5b600182019050919050565b7f43616c6c20494420616c72656164792075736564000000000000000000000000600082015250565b6000611b9e601483611836565b9150611ba982611b68565b602082019050919050565b60006020820190508181036000830152611bcd81611b91565b9050919050565b7f4e69636b6e616d6520616c726561647920696e20757365000000000000000000600082015250565b6000611c0a601783611836565b9150611c1582611bd4565b602082019050919050565b60006020820190508181036000830152611c3981611bfd565b9050919050565b7f4e487b7100000000000000000000000000000000000000000000000000000000600052602260045260246000fd5b60006002820490506001821680611c8757607f821691505b602082108103611c9a57611c99611c40565b5b50919050565b60008190508160005260206000209050919050565b60006020601f8301049050919050565b600082821b905092915050565b600060088302611d027fffffffffffffffffffffffffffffffffffffffffffffffffffffffffffffffff82611cc5565b611d0c8683611cc5565b95508019841693508086168417925050509392505050565b6000819050919050565b6000611d49611d44611d3f84611b16565b611d24565b611b16565b9050919050565b6000819050919050565b611d6383611d2e565b611d77611d6f82611d50565b848454611cd2565b825550505050565b600090565b611d8c611d7f565b611d97818484611d5a565b505050565b5b81811015611dbb57611db0600082611d84565b600181019050611d9d565b5050565b601f821115611e0057611dd181611ca0565b611dda84611cb5565b81016020851015611de9578190505b611dfd611df585611cb5565b830182611d9c565b50505b505050565b600082821c905092915050565b6000611e2360001984600802611e05565b1980831691505092915050565b6000611e3c8383611e12565b9150826002028217905092915050565b611e558261182b565b67ffffffffffffffff811115611e6e57611e6d61159a565b5b611e788254611c6f565b611e83828285611dbf565b600060209050601f831160018114611eb65760008415611ea4578287015190505b611eae8582611e30565b865550611f16565b601f198416611ec486611ca0565b60005b82811015611eec57848901518255600182019150602085019450602081019050611ec7565b86831015611f095784890151611f05601f891682611e12565b8355505b6001600288020188555050505b505050505050565b6000604082019050611f336000830185611a3b565b8181036020830152611f458184611871565b90509392505050565b7f5573657220616c72656164792061646d69747465640000000000000000000000600082015250565b6000611f84601583611836565b9150611f8f82611f4e565b602082019050919050565b60006020820190508181036000830152611fb381611f77565b905091905056fea2646970667358221220053405fc0138cb339bcf5cead48a271e02c618f7bb061d84ae2896716d575e2464736f6c63430008110033",
  "linkReferences": {},
  "deployedLinkReferences": {}
}