{
  "_format": "hh-sol-artifact-1",
  "contractName": "EtheCall",
  "sourceName": "contracts/Ethe-Call.sol",
  "abi": [
    {
      "inputs": [],
      "name": "NOT_A_HOST",
      "type": "error"
    },
    {
      "inputs": [
        {
          "internalType": "string",
          "name": "call_id",
          "type": "string"
        },
        {
          "internalType": "address",
          "name": "user",
          "type": "address"
        }
      ],
      "name": "addAdmin",
      "outputs": [],
      "stateMutability": "nonpayable",
      "type": "function"
    },
    {
      "inputs": [
        {
          "internalType": "string",
          "name": "call_id",
          "type": "string"
        },
        {
          "internalType": "address",
          "name": "new_callee",
          "type": "address"
        }
      ],
      "name": "admitUser",
      "outputs": [],
      "stateMutability": "nonpayable",
      "type": "function"
    },
    {
      "inputs": [
        {
          "internalType": "string",
          "name": "call_id",
          "type": "string"
        },
        {
          "internalType": "address",
          "name": "new_host",
          "type": "address"
        }
      ],
      "name": "changeHost",
      "outputs": [],
      "stateMutability": "nonpayable",
      "type": "function"
    },
    {
      "inputs": [
        {
          "internalType": "string",
          "name": "call_id",
          "type": "string"
        },
        {
          "internalType": "address",
          "name": "user",
          "type": "address"
        }
      ],
      "name": "isAdmin",
      "outputs": [
        {
          "internalType": "bool",
          "name": "",
          "type": "bool"
        }
      ],
      "stateMutability": "view",
      "type": "function"
    },
    {
      "inputs": [
        {
          "internalType": "string",
          "name": "call_id",
          "type": "string"
        },
        {
          "internalType": "address",
          "name": "user",
          "type": "address"
        }
      ],
      "name": "isAdmitted",
      "outputs": [
        {
          "internalType": "bool",
          "name": "",
          "type": "bool"
        }
      ],
      "stateMutability": "view",
      "type": "function"
    },
    {
      "inputs": [
        {
          "internalType": "string",
          "name": "call_id",
          "type": "string"
        }
      ],
      "name": "newCall",
      "outputs": [],
      "stateMutability": "nonpayable",
      "type": "function"
    },
    {
      "inputs": [
        {
          "internalType": "string",
          "name": "fingerprint",
          "type": "string"
        }
      ],
      "name": "setFingerprint",
      "outputs": [],
      "stateMutability": "nonpayable",
      "type": "function"
    },
    {
      "inputs": [
        {
          "internalType": "string",
          "name": "nickname",
          "type": "string"
        }
      ],
      "name": "setNickname",
      "outputs": [],
      "stateMutability": "nonpayable",
      "type": "function"
    }
  ],
  "bytecode": "0x608060405234801561001057600080fd5b50611564806100206000396000f3fe608060405234801561001057600080fd5b50600436106100885760003560e01c806354d7a9f61161005b57806354d7a9f6146101115780637fd537cc1461012d57806385e1f5c514610149578063fee9255c1461017957610088565b80630831b05f1461008d57806318ca3b6c146100a95780631c5d9faa146100c55780633b486095146100e1575b600080fd5b6100a760048036038101906100a29190610ee8565b610195565b005b6100c360048036038101906100be9190610f44565b61046c565b005b6100df60048036038101906100da9190610f44565b6105f0565b005b6100fb60048036038101906100f69190610ee8565b61074d565b6040516101089190610fa8565b60405180910390f35b61012b60048036038101906101269190610ee8565b61088b565b005b61014760048036038101906101429190610ee8565b610997565b005b610163600480360381019061015e9190610ee8565b610b8b565b6040516101709190610fa8565b60405180910390f35b610193600480360381019061018e9190610f44565b610c75565b005b816000816040516101a69190611034565b908152602001604051809103902060000160009054906101000a900473ffffffffffffffffffffffffffffffffffffffff1673ffffffffffffffffffffffffffffffffffffffff163373ffffffffffffffffffffffffffffffffffffffff161461023c576040517f3a51e3d500000000000000000000000000000000000000000000000000000000815260040160405180910390fd5b60005b60018460405161024f9190611034565b908152602001604051809103902080549050811015610366576001846040516102789190611034565b908152602001604051809103902081815481106102985761029761104b565b5b9060005260206000200160000160009054906101000a900473ffffffffffffffffffffffffffffffffffffffff1673ffffffffffffffffffffffffffffffffffffffff168373ffffffffffffffffffffffffffffffffffffffff160361035357600180856040516103099190611034565b908152602001604051809103902082815481106103295761032861104b565b5b9060005260206000200160000160146101000a81548160ff02191690831515021790555050610467565b808061035e906110b3565b91505061023f565b5061036f610cc8565b82816000019073ffffffffffffffffffffffffffffffffffffffff16908173ffffffffffffffffffffffffffffffffffffffff168152505060018160200190151590811515815250506001846040516103c89190611034565b9081526020016040518091039020819080600181540180825580915050600190039060005260206000200160009091909190915060008201518160000160006101000a81548173ffffffffffffffffffffffffffffffffffffffff021916908373ffffffffffffffffffffffffffffffffffffffff16021790555060208201518160000160146101000a81548160ff0219169083151502179055505050505b505050565b600073ffffffffffffffffffffffffffffffffffffffff166000826040516104949190611034565b908152602001604051809103902060000160009054906101000a900473ffffffffffffffffffffffffffffffffffffffff1673ffffffffffffffffffffffffffffffffffffffff161461051c576040517f08c379a000000000000000000000000000000000000000000000000000000000815260040161051390611158565b60405180910390fd5b610524610cfa565b33816000019073ffffffffffffffffffffffffffffffffffffffff16908173ffffffffffffffffffffffffffffffffffffffff16815250508060008360405161056d9190611034565b908152602001604051809103902060008201518160000160006101000a81548173ffffffffffffffffffffffffffffffffffffffff021916908373ffffffffffffffffffffffffffffffffffffffff16021790555060208201518160000160146101000a81548163ffffffff021916908363ffffffff1602179055509050505050565b600073ffffffffffffffffffffffffffffffffffffffff166003826040516106189190611034565b908152602001604051809103902060009054906101000a900473ffffffffffffffffffffffffffffffffffffffff1673ffffffffffffffffffffffffffffffffffffffff161461069d576040517f08c379a0000000000000000000000000000000000000000000000000000000008152600401610694906111c4565b60405180910390fd5b336003826040516106ae9190611034565b908152602001604051809103902060006101000a81548173ffffffffffffffffffffffffffffffffffffffff021916908373ffffffffffffffffffffffffffffffffffffffff16021790555080600260003373ffffffffffffffffffffffffffffffffffffffff1673ffffffffffffffffffffffffffffffffffffffff168152602001908152602001600020600001908161074991906113f0565b5050565b600080600090505b6001846040516107659190611034565b90815260200160405180910390208054905081101561087f5760018460405161078e9190611034565b908152602001604051809103902081815481106107ae576107ad61104b565b5b9060005260206000200160000160009054906101000a900473ffffffffffffffffffffffffffffffffffffffff1673ffffffffffffffffffffffffffffffffffffffff168373ffffffffffffffffffffffffffffffffffffffff1614801561085d57506001846040516108219190611034565b908152602001604051809103902081815481106108415761084061104b565b5b9060005260206000200160000160149054906101000a900460ff165b1561086c576001915050610885565b8080610877906110b3565b915050610755565b50600090505b92915050565b8160008160405161089c9190611034565b908152602001604051809103902060000160009054906101000a900473ffffffffffffffffffffffffffffffffffffffff1673ffffffffffffffffffffffffffffffffffffffff163373ffffffffffffffffffffffffffffffffffffffff1614610932576040517f3a51e3d500000000000000000000000000000000000000000000000000000000815260040160405180910390fd5b816000846040516109439190611034565b908152602001604051809103902060000160006101000a81548173ffffffffffffffffffffffffffffffffffffffff021916908373ffffffffffffffffffffffffffffffffffffffff160217905550505050565b816000816040516109a89190611034565b908152602001604051809103902060000160009054906101000a900473ffffffffffffffffffffffffffffffffffffffff1673ffffffffffffffffffffffffffffffffffffffff163373ffffffffffffffffffffffffffffffffffffffff1614610a3e576040517f3a51e3d500000000000000000000000000000000000000000000000000000000815260040160405180910390fd5b610a488383610b8b565b610a87576040517f08c379a0000000000000000000000000000000000000000000000000000000008152600401610a7e9061150e565b60405180910390fd5b610a8f610cc8565b82816000019073ffffffffffffffffffffffffffffffffffffffff16908173ffffffffffffffffffffffffffffffffffffffff16815250506000816020019015159081151581525050600184604051610ae89190611034565b9081526020016040518091039020819080600181540180825580915050600190039060005260206000200160009091909190915060008201518160000160006101000a81548173ffffffffffffffffffffffffffffffffffffffff021916908373ffffffffffffffffffffffffffffffffffffffff16021790555060208201518160000160146101000a81548160ff021916908315150217905550505050505050565b600080600090505b600184604051610ba39190611034565b908152602001604051809103902080549050811015610c6957600184604051610bcc9190611034565b90815260200160405180910390208181548110610bec57610beb61104b565b5b9060005260206000200160000160009054906101000a900473ffffffffffffffffffffffffffffffffffffffff1673ffffffffffffffffffffffffffffffffffffffff168373ffffffffffffffffffffffffffffffffffffffff1603610c56576001915050610c6f565b8080610c61906110b3565b915050610b93565b50600090505b92915050565b80600260003373ffffffffffffffffffffffffffffffffffffffff1673ffffffffffffffffffffffffffffffffffffffff1681526020019081526020016000206001019081610cc491906113f0565b5050565b6040518060400160405280600073ffffffffffffffffffffffffffffffffffffffff1681526020016000151581525090565b6040518060400160405280600073ffffffffffffffffffffffffffffffffffffffff168152602001600063ffffffff1681525090565b6000604051905090565b600080fd5b600080fd5b600080fd5b600080fd5b6000601f19601f8301169050919050565b7f4e487b7100000000000000000000000000000000000000000000000000000000600052604160045260246000fd5b610d9782610d4e565b810181811067ffffffffffffffff82111715610db657610db5610d5f565b5b80604052505050565b6000610dc9610d30565b9050610dd58282610d8e565b919050565b600067ffffffffffffffff821115610df557610df4610d5f565b5b610dfe82610d4e565b9050602081019050919050565b82818337600083830152505050565b6000610e2d610e2884610dda565b610dbf565b905082815260208101848484011115610e4957610e48610d49565b5b610e54848285610e0b565b509392505050565b600082601f830112610e7157610e70610d44565b5b8135610e81848260208601610e1a565b91505092915050565b600073ffffffffffffffffffffffffffffffffffffffff82169050919050565b6000610eb582610e8a565b9050919050565b610ec581610eaa565b8114610ed057600080fd5b50565b600081359050610ee281610ebc565b92915050565b60008060408385031215610eff57610efe610d3a565b5b600083013567ffffffffffffffff811115610f1d57610f1c610d3f565b5b610f2985828601610e5c565b9250506020610f3a85828601610ed3565b9150509250929050565b600060208284031215610f5a57610f59610d3a565b5b600082013567ffffffffffffffff811115610f7857610f77610d3f565b5b610f8484828501610e5c565b91505092915050565b60008115159050919050565b610fa281610f8d565b82525050565b6000602082019050610fbd6000830184610f99565b92915050565b600081519050919050565b600081905092915050565b60005b83811015610ff7578082015181840152602081019050610fdc565b60008484015250505050565b600061100e82610fc3565b6110188185610fce565b9350611028818560208601610fd9565b80840191505092915050565b60006110408284611003565b915081905092915050565b7f4e487b7100000000000000000000000000000000000000000000000000000000600052603260045260246000fd5b7f4e487b7100000000000000000000000000000000000000000000000000000000600052601160045260246000fd5b6000819050919050565b60006110be826110a9565b91507fffffffffffffffffffffffffffffffffffffffffffffffffffffffffffffffff82036110f0576110ef61107a565b5b600182019050919050565b600082825260208201905092915050565b7f43616c6c20494420616c72656164792075736564000000000000000000000000600082015250565b60006111426014836110fb565b915061114d8261110c565b602082019050919050565b6000602082019050818103600083015261117181611135565b9050919050565b7f4e69636b6e616d6520616c726561647920696e20757365000000000000000000600082015250565b60006111ae6017836110fb565b91506111b982611178565b602082019050919050565b600060208201905081810360008301526111dd816111a1565b9050919050565b7f4e487b7100000000000000000000000000000000000000000000000000000000600052602260045260246000fd5b6000600282049050600182168061122b57607f821691505b60208210810361123e5761123d6111e4565b5b50919050565b60008190508160005260206000209050919050565b60006020601f8301049050919050565b600082821b905092915050565b6000600883026112a67fffffffffffffffffffffffffffffffffffffffffffffffffffffffffffffffff82611269565b6112b08683611269565b95508019841693508086168417925050509392505050565b6000819050919050565b60006112ed6112e86112e3846110a9565b6112c8565b6110a9565b9050919050565b6000819050919050565b611307836112d2565b61131b611313826112f4565b848454611276565b825550505050565b600090565b611330611323565b61133b8184846112fe565b505050565b5b8181101561135f57611354600082611328565b600181019050611341565b5050565b601f8211156113a45761137581611244565b61137e84611259565b8101602085101561138d578190505b6113a161139985611259565b830182611340565b50505b505050565b600082821c905092915050565b60006113c7600019846008026113a9565b1980831691505092915050565b60006113e083836113b6565b9150826002028217905092915050565b6113f982610fc3565b67ffffffffffffffff81111561141257611411610d5f565b5b61141c8254611213565b611427828285611363565b600060209050601f83116001811461145a5760008415611448578287015190505b61145285826113d4565b8655506114ba565b601f19841661146886611244565b60005b828110156114905784890151825560018201915060208501945060208101905061146b565b868310156114ad57848901516114a9601f8916826113b6565b8355505b6001600288020188555050505b505050505050565b7f5573657220616c72656164792061646d69747465640000000000000000000000600082015250565b60006114f86015836110fb565b9150611503826114c2565b602082019050919050565b60006020820190508181036000830152611527816114eb565b905091905056fea26469706673582212207ba3182280befe487b09353cc786c5eb6b08f2f6167c0d0a94390f3198cb1a1b64736f6c63430008110033",
  "linkReferences": {},
  "deployedLinkReferences": {}
}