{
  "_format": "hh-sol-artifact-1",
  "contractName": "EtheCall",
  "sourceName": "contracts/Ethe-Call.sol",
  "abi": [
    {
      "inputs": [],
      "name": "NOT_A_HOST",
      "type": "error"
    },
    {
      "inputs": [
        {
          "internalType": "string",
          "name": "call_id",
          "type": "string"
        },
        {
          "internalType": "address",
          "name": "user",
          "type": "address"
        }
      ],
      "name": "addAdmin",
      "outputs": [],
      "stateMutability": "nonpayable",
      "type": "function"
    },
    {
      "inputs": [
        {
          "internalType": "string",
          "name": "call_id",
          "type": "string"
        },
        {
          "internalType": "address",
          "name": "new_callee",
          "type": "address"
        }
      ],
      "name": "admitUser",
      "outputs": [],
      "stateMutability": "nonpayable",
      "type": "function"
    },
    {
      "inputs": [
        {
          "internalType": "string",
          "name": "call_id",
          "type": "string"
        },
        {
          "internalType": "address",
          "name": "new_host",
          "type": "address"
        }
      ],
      "name": "changeHost",
      "outputs": [],
      "stateMutability": "nonpayable",
      "type": "function"
    },
    {
      "inputs": [
        {
          "internalType": "address",
          "name": "user",
          "type": "address"
        }
      ],
      "name": "getFingerprint",
      "outputs": [
        {
          "internalType": "string",
          "name": "",
          "type": "string"
        }
      ],
      "stateMutability": "view",
      "type": "function"
    },
    {
      "inputs": [
        {
          "internalType": "string",
          "name": "call_id",
          "type": "string"
        }
      ],
      "name": "getHost",
      "outputs": [
        {
          "internalType": "address",
          "name": "",
          "type": "address"
        }
      ],
      "stateMutability": "view",
      "type": "function"
    },
    {
      "inputs": [
        {
          "internalType": "address",
          "name": "user",
          "type": "address"
        }
      ],
      "name": "getNickname",
      "outputs": [
        {
          "internalType": "string",
          "name": "",
          "type": "string"
        }
      ],
      "stateMutability": "view",
      "type": "function"
    },
    {
      "inputs": [
        {
          "internalType": "string",
          "name": "call_id",
          "type": "string"
        },
        {
          "internalType": "address",
          "name": "user",
          "type": "address"
        }
      ],
      "name": "isAdmin",
      "outputs": [
        {
          "internalType": "bool",
          "name": "",
          "type": "bool"
        }
      ],
      "stateMutability": "view",
      "type": "function"
    },
    {
      "inputs": [
        {
          "internalType": "string",
          "name": "call_id",
          "type": "string"
        },
        {
          "internalType": "address",
          "name": "user",
          "type": "address"
        }
      ],
      "name": "isAdmitted",
      "outputs": [
        {
          "internalType": "bool",
          "name": "",
          "type": "bool"
        }
      ],
      "stateMutability": "view",
      "type": "function"
    },
    {
      "inputs": [
        {
          "internalType": "string",
          "name": "call_id",
          "type": "string"
        }
      ],
      "name": "newCall",
      "outputs": [],
      "stateMutability": "nonpayable",
      "type": "function"
    },
    {
      "inputs": [
        {
          "internalType": "string",
          "name": "call_id",
          "type": "string"
        },
        {
          "internalType": "address[]",
          "name": "users",
          "type": "address[]"
        },
        {
          "internalType": "address[]",
          "name": "admins",
          "type": "address[]"
        }
      ],
      "name": "newCall",
      "outputs": [],
      "stateMutability": "nonpayable",
      "type": "function"
    },
    {
      "inputs": [
        {
          "internalType": "string",
          "name": "nickname",
          "type": "string"
        }
      ],
      "name": "nicknameToAddress",
      "outputs": [
        {
          "internalType": "address",
          "name": "",
          "type": "address"
        }
      ],
      "stateMutability": "view",
      "type": "function"
    },
    {
      "inputs": [
        {
          "internalType": "string",
          "name": "fingerprint",
          "type": "string"
        }
      ],
      "name": "setFingerprint",
      "outputs": [],
      "stateMutability": "nonpayable",
      "type": "function"
    },
    {
      "inputs": [
        {
          "internalType": "string",
          "name": "nickname",
          "type": "string"
        }
      ],
      "name": "setNickname",
      "outputs": [],
      "stateMutability": "nonpayable",
      "type": "function"
    }
  ],
  "bytecode": "0x608060405234801561001057600080fd5b50611e86806100206000396000f3fe608060405234801561001057600080fd5b50600436106100cf5760003560e01c80637fd537cc1161008c5780639e84e3a1116100665780639e84e3a11461020c578063adaccd741461023c578063f5cd7d461461026c578063fee9255c1461029c576100cf565b80637fd537cc146101a457806385e1f5c5146101c05780639a290c0c146101f0576100cf565b80630831b05f146100d457806318ca3b6c146100f05780631c5d9faa1461010c5780633b4860951461012857806354d7a9f6146101585780636c6c1e9014610174575b600080fd5b6100ee60048036038101906100e9919061157d565b6102b8565b005b61010a600480360381019061010591906115d9565b61056a565b005b610126600480360381019061012191906115d9565b6107c8565b005b610142600480360381019061013d919061157d565b610922565b60405161014f919061163d565b60405180910390f35b610172600480360381019061016d919061157d565b610a60565b005b61018e60048036038101906101899190611658565b610b6c565b60405161019b9190611704565b60405180910390f35b6101be60048036038101906101b9919061157d565b610c3d565b005b6101da60048036038101906101d5919061157d565b610e0c565b6040516101e7919061163d565b60405180910390f35b61020a600480360381019061020591906117ee565b610ef6565b005b610226600480360381019061022191906115d9565b61112c565b60405161023391906118a4565b60405180910390f35b61025660048036038101906102519190611658565b611174565b6040516102639190611704565b60405180910390f35b610286600480360381019061028191906115d9565b611245565b60405161029391906118a4565b60405180910390f35b6102b660048036038101906102b191906115d9565b61133f565b005b816000816040516102c991906118fb565b908152602001604051809103902060000160009054906101000a900473ffffffffffffffffffffffffffffffffffffffff1673ffffffffffffffffffffffffffffffffffffffff163373ffffffffffffffffffffffffffffffffffffffff161461035f576040517f3a51e3d500000000000000000000000000000000000000000000000000000000815260040160405180910390fd5b60005b60018460405161037291906118fb565b9081526020016040518091039020805490508110156104895760018460405161039b91906118fb565b908152602001604051809103902081815481106103bb576103ba611912565b5b9060005260206000200160000160009054906101000a900473ffffffffffffffffffffffffffffffffffffffff1673ffffffffffffffffffffffffffffffffffffffff168373ffffffffffffffffffffffffffffffffffffffff1603610476576001808560405161042c91906118fb565b9081526020016040518091039020828154811061044c5761044b611912565b5b9060005260206000200160000160146101000a81548160ff02191690831515021790555050610565565b80806104819061197a565b915050610362565b5060018360405161049a91906118fb565b908152602001604051809103902060405180604001604052808473ffffffffffffffffffffffffffffffffffffffff168152602001600115158152509080600181540180825580915050600190039060005260206000200160009091909190915060008201518160000160006101000a81548173ffffffffffffffffffffffffffffffffffffffff021916908373ffffffffffffffffffffffffffffffffffffffff16021790555060208201518160000160146101000a81548160ff02191690831515021790555050505b505050565b600073ffffffffffffffffffffffffffffffffffffffff1660008260405161059291906118fb565b908152602001604051809103902060000160009054906101000a900473ffffffffffffffffffffffffffffffffffffffff1673ffffffffffffffffffffffffffffffffffffffff161461061a576040517f08c379a000000000000000000000000000000000000000000000000000000000815260040161061190611a0e565b60405180910390fd5b61062261138f565b33816000019073ffffffffffffffffffffffffffffffffffffffff16908173ffffffffffffffffffffffffffffffffffffffff16815250508060008360405161066b91906118fb565b908152602001604051809103902060008201518160000160006101000a81548173ffffffffffffffffffffffffffffffffffffffff021916908373ffffffffffffffffffffffffffffffffffffffff16021790555060208201518160000160146101000a81548163ffffffff021916908363ffffffff1602179055509050506001826040516106fa91906118fb565b908152602001604051809103902060405180604001604052803373ffffffffffffffffffffffffffffffffffffffff168152602001600115158152509080600181540180825580915050600190039060005260206000200160009091909190915060008201518160000160006101000a81548173ffffffffffffffffffffffffffffffffffffffff021916908373ffffffffffffffffffffffffffffffffffffffff16021790555060208201518160000160146101000a81548160ff02191690831515021790555050505050565b600073ffffffffffffffffffffffffffffffffffffffff166004826040516107f091906118fb565b908152602001604051809103902060009054906101000a900473ffffffffffffffffffffffffffffffffffffffff1673ffffffffffffffffffffffffffffffffffffffff1614610875576040517f08c379a000000000000000000000000000000000000000000000000000000000815260040161086c90611a7a565b60405180910390fd5b3360048260405161088691906118fb565b908152602001604051809103902060006101000a81548173ffffffffffffffffffffffffffffffffffffffff021916908373ffffffffffffffffffffffffffffffffffffffff16021790555080600360003373ffffffffffffffffffffffffffffffffffffffff1673ffffffffffffffffffffffffffffffffffffffff168152602001908152602001600020908161091e9190611ca6565b5050565b600080600090505b60018460405161093a91906118fb565b908152602001604051809103902080549050811015610a545760018460405161096391906118fb565b9081526020016040518091039020818154811061098357610982611912565b5b9060005260206000200160000160009054906101000a900473ffffffffffffffffffffffffffffffffffffffff1673ffffffffffffffffffffffffffffffffffffffff168373ffffffffffffffffffffffffffffffffffffffff16148015610a3257506001846040516109f691906118fb565b90815260200160405180910390208181548110610a1657610a15611912565b5b9060005260206000200160000160149054906101000a900460ff165b15610a41576001915050610a5a565b8080610a4c9061197a565b91505061092a565b50600090505b92915050565b81600081604051610a7191906118fb565b908152602001604051809103902060000160009054906101000a900473ffffffffffffffffffffffffffffffffffffffff1673ffffffffffffffffffffffffffffffffffffffff163373ffffffffffffffffffffffffffffffffffffffff1614610b07576040517f3a51e3d500000000000000000000000000000000000000000000000000000000815260040160405180910390fd5b81600084604051610b1891906118fb565b908152602001604051809103902060000160006101000a81548173ffffffffffffffffffffffffffffffffffffffff021916908373ffffffffffffffffffffffffffffffffffffffff160217905550505050565b6060600260008373ffffffffffffffffffffffffffffffffffffffff1673ffffffffffffffffffffffffffffffffffffffff1681526020019081526020016000208054610bb890611ac9565b80601f0160208091040260200160405190810160405280929190818152602001828054610be490611ac9565b8015610c315780601f10610c0657610100808354040283529160200191610c31565b820191906000526020600020905b815481529060010190602001808311610c1457829003601f168201915b50505050509050919050565b81600081604051610c4e91906118fb565b908152602001604051809103902060000160009054906101000a900473ffffffffffffffffffffffffffffffffffffffff1673ffffffffffffffffffffffffffffffffffffffff163373ffffffffffffffffffffffffffffffffffffffff1614610ce4576040517f3a51e3d500000000000000000000000000000000000000000000000000000000815260040160405180910390fd5b610cee8383610e0c565b610d2d576040517f08c379a0000000000000000000000000000000000000000000000000000000008152600401610d2490611dc4565b60405180910390fd5b600183604051610d3d91906118fb565b908152602001604051809103902060405180604001604052808473ffffffffffffffffffffffffffffffffffffffff168152602001600015158152509080600181540180825580915050600190039060005260206000200160009091909190915060008201518160000160006101000a81548173ffffffffffffffffffffffffffffffffffffffff021916908373ffffffffffffffffffffffffffffffffffffffff16021790555060208201518160000160146101000a81548160ff0219169083151502179055505050505050565b600080600090505b600184604051610e2491906118fb565b908152602001604051809103902080549050811015610eea57600184604051610e4d91906118fb565b90815260200160405180910390208181548110610e6d57610e6c611912565b5b9060005260206000200160000160009054906101000a900473ffffffffffffffffffffffffffffffffffffffff1673ffffffffffffffffffffffffffffffffffffffff168373ffffffffffffffffffffffffffffffffffffffff1603610ed7576001915050610ef0565b8080610ee29061197a565b915050610e14565b50600090505b92915050565b610eff8361056a565b60005b825181101561101257600184604051610f1b91906118fb565b90815260200160405180910390206040518060400160405280858481518110610f4757610f46611912565b5b602002602001015173ffffffffffffffffffffffffffffffffffffffff168152602001600015158152509080600181540180825580915050600190039060005260206000200160009091909190915060008201518160000160006101000a81548173ffffffffffffffffffffffffffffffffffffffff021916908373ffffffffffffffffffffffffffffffffffffffff16021790555060208201518160000160146101000a81548160ff0219169083151502179055505050808061100a9061197a565b915050610f02565b5060005b81518110156111265760018460405161102f91906118fb565b9081526020016040518091039020604051806040016040528084848151811061105b5761105a611912565b5b602002602001015173ffffffffffffffffffffffffffffffffffffffff168152602001600115158152509080600181540180825580915050600190039060005260206000200160009091909190915060008201518160000160006101000a81548173ffffffffffffffffffffffffffffffffffffffff021916908373ffffffffffffffffffffffffffffffffffffffff16021790555060208201518160000160146101000a81548160ff0219169083151502179055505050808061111e9061197a565b915050611016565b50505050565b600060048260405161113e91906118fb565b908152602001604051809103902060009054906101000a900473ffffffffffffffffffffffffffffffffffffffff169050919050565b6060600360008373ffffffffffffffffffffffffffffffffffffffff1673ffffffffffffffffffffffffffffffffffffffff16815260200190815260200160002080546111c090611ac9565b80601f01602080910402602001604051908101604052809291908181526020018280546111ec90611ac9565b80156112395780601f1061120e57610100808354040283529160200191611239565b820191906000526020600020905b81548152906001019060200180831161121c57829003601f168201915b50505050509050919050565b60008073ffffffffffffffffffffffffffffffffffffffff1660008360405161126e91906118fb565b908152602001604051809103902060000160009054906101000a900473ffffffffffffffffffffffffffffffffffffffff1673ffffffffffffffffffffffffffffffffffffffff16036112f6576040517f08c379a00000000000000000000000000000000000000000000000000000000081526004016112ed90611e30565b60405180910390fd5b60008260405161130691906118fb565b908152602001604051809103902060000160009054906101000a900473ffffffffffffffffffffffffffffffffffffffff169050919050565b80600260003373ffffffffffffffffffffffffffffffffffffffff1673ffffffffffffffffffffffffffffffffffffffff168152602001908152602001600020908161138b9190611ca6565b5050565b6040518060400160405280600073ffffffffffffffffffffffffffffffffffffffff168152602001600063ffffffff1681525090565b6000604051905090565b600080fd5b600080fd5b600080fd5b600080fd5b6000601f19601f8301169050919050565b7f4e487b7100000000000000000000000000000000000000000000000000000000600052604160045260246000fd5b61142c826113e3565b810181811067ffffffffffffffff8211171561144b5761144a6113f4565b5b80604052505050565b600061145e6113c5565b905061146a8282611423565b919050565b600067ffffffffffffffff82111561148a576114896113f4565b5b611493826113e3565b9050602081019050919050565b82818337600083830152505050565b60006114c26114bd8461146f565b611454565b9050828152602081018484840111156114de576114dd6113de565b5b6114e98482856114a0565b509392505050565b600082601f830112611506576115056113d9565b5b81356115168482602086016114af565b91505092915050565b600073ffffffffffffffffffffffffffffffffffffffff82169050919050565b600061154a8261151f565b9050919050565b61155a8161153f565b811461156557600080fd5b50565b60008135905061157781611551565b92915050565b60008060408385031215611594576115936113cf565b5b600083013567ffffffffffffffff8111156115b2576115b16113d4565b5b6115be858286016114f1565b92505060206115cf85828601611568565b9150509250929050565b6000602082840312156115ef576115ee6113cf565b5b600082013567ffffffffffffffff81111561160d5761160c6113d4565b5b611619848285016114f1565b91505092915050565b60008115159050919050565b61163781611622565b82525050565b6000602082019050611652600083018461162e565b92915050565b60006020828403121561166e5761166d6113cf565b5b600061167c84828501611568565b91505092915050565b600081519050919050565b600082825260208201905092915050565b60005b838110156116bf5780820151818401526020810190506116a4565b60008484015250505050565b60006116d682611685565b6116e08185611690565b93506116f08185602086016116a1565b6116f9816113e3565b840191505092915050565b6000602082019050818103600083015261171e81846116cb565b905092915050565b600067ffffffffffffffff821115611741576117406113f4565b5b602082029050602081019050919050565b600080fd5b600061176a61176584611726565b611454565b9050808382526020820190506020840283018581111561178d5761178c611752565b5b835b818110156117b657806117a28882611568565b84526020840193505060208101905061178f565b5050509392505050565b600082601f8301126117d5576117d46113d9565b5b81356117e5848260208601611757565b91505092915050565b600080600060608486031215611807576118066113cf565b5b600084013567ffffffffffffffff811115611825576118246113d4565b5b611831868287016114f1565b935050602084013567ffffffffffffffff811115611852576118516113d4565b5b61185e868287016117c0565b925050604084013567ffffffffffffffff81111561187f5761187e6113d4565b5b61188b868287016117c0565b9150509250925092565b61189e8161153f565b82525050565b60006020820190506118b96000830184611895565b92915050565b600081905092915050565b60006118d582611685565b6118df81856118bf565b93506118ef8185602086016116a1565b80840191505092915050565b600061190782846118ca565b915081905092915050565b7f4e487b7100000000000000000000000000000000000000000000000000000000600052603260045260246000fd5b7f4e487b7100000000000000000000000000000000000000000000000000000000600052601160045260246000fd5b6000819050919050565b600061198582611970565b91507fffffffffffffffffffffffffffffffffffffffffffffffffffffffffffffffff82036119b7576119b6611941565b5b600182019050919050565b7f43616c6c20494420616c72656164792075736564000000000000000000000000600082015250565b60006119f8601483611690565b9150611a03826119c2565b602082019050919050565b60006020820190508181036000830152611a27816119eb565b9050919050565b7f4e69636b6e616d6520616c726561647920696e20757365000000000000000000600082015250565b6000611a64601783611690565b9150611a6f82611a2e565b602082019050919050565b60006020820190508181036000830152611a9381611a57565b9050919050565b7f4e487b7100000000000000000000000000000000000000000000000000000000600052602260045260246000fd5b60006002820490506001821680611ae157607f821691505b602082108103611af457611af3611a9a565b5b50919050565b60008190508160005260206000209050919050565b60006020601f8301049050919050565b600082821b905092915050565b600060088302611b5c7fffffffffffffffffffffffffffffffffffffffffffffffffffffffffffffffff82611b1f565b611b668683611b1f565b95508019841693508086168417925050509392505050565b6000819050919050565b6000611ba3611b9e611b9984611970565b611b7e565b611970565b9050919050565b6000819050919050565b611bbd83611b88565b611bd1611bc982611baa565b848454611b2c565b825550505050565b600090565b611be6611bd9565b611bf1818484611bb4565b505050565b5b81811015611c1557611c0a600082611bde565b600181019050611bf7565b5050565b601f821115611c5a57611c2b81611afa565b611c3484611b0f565b81016020851015611c43578190505b611c57611c4f85611b0f565b830182611bf6565b50505b505050565b600082821c905092915050565b6000611c7d60001984600802611c5f565b1980831691505092915050565b6000611c968383611c6c565b9150826002028217905092915050565b611caf82611685565b67ffffffffffffffff811115611cc857611cc76113f4565b5b611cd28254611ac9565b611cdd828285611c19565b600060209050601f831160018114611d105760008415611cfe578287015190505b611d088582611c8a565b865550611d70565b601f198416611d1e86611afa565b60005b82811015611d4657848901518255600182019150602085019450602081019050611d21565b86831015611d635784890151611d5f601f891682611c6c565b8355505b6001600288020188555050505b505050505050565b7f5573657220616c72656164792061646d69747465640000000000000000000000600082015250565b6000611dae601583611690565b9150611db982611d78565b602082019050919050565b60006020820190508181036000830152611ddd81611da1565b9050919050565b7f43616c6c20494420646f6573206e6f7420657869737400000000000000000000600082015250565b6000611e1a601683611690565b9150611e2582611de4565b602082019050919050565b60006020820190508181036000830152611e4981611e0d565b905091905056fea26469706673582212202bf199fa98fc17de7eca3251979ea163dc1f135dc3e6fed57262db0b431970ff64736f6c63430008110033",
  "linkReferences": {},
  "deployedLinkReferences": {}
}